:1000000048C162C161C160C15FC149C25DC15CC11B
:100010005BC15AC159C158C157C156C155C1AE2063
:1000200000B0C8001040813FA1A6A83FA4D300D5CE
:10003000F0D922DA12DB208D14AF00000000380066
:10004000000000003700000000003600020202023B
:100050000202020202020102040810202004100819
:100060000102000004000000000000000000000089
:100070000000002F000000000700070000147F149C
:100080007F1400242A7F2A1200626408132300369A
:100090004955225000000503000000001C224100C9
:1000A000000041221C000014083E08140008083E0D
:1000B0000808000000A06000000808080808000008
:1000C00060600000002010080402003E5149453ED7
:1000D0000000427F400000426151494600214145F5
:1000E0004B31001814127F10002745454539003C5C
:1000F0004A4949300001710905030036494949362A
:1001000000064949291E0000363600000000563618
:1001100000000008142241000014141414140000FC
:100120004122140800020151090600324959513E8A
:10013000007C1211127C007F49494936003E414142
:100140004122007F4141221C007F49494941007FF3
:1001500009090901003E4149497A007F0808087FE2
:100160000000417F4100002040413F01007F081412
:100170002241007F40404040007F020C027F007F10
:100180000408107F003E4141413E007F09090906F5
:10019000003E4151215E007F091929460046494928
:1001A00049310001017F0101003F4040403F001FF5
:1001B0002040201F003F4038403F00631408146374
:1001C00000070870080700615149454300007F415E
:1001D000410000552A552A55000041417F00000486
:1001E00002010204004040404040000001020400BF
:1001F000002054545478007F484444380038444424
:10020000442000384444487F0038545454180008AF
:100210007E0901020018A4A4A47C007F08040478CD
:100220000000447D4000004080847D00007F102855
:1002300044000000417F4000007C04180478007CEA
:100240000804047800384444443800FC242424186A
:100250000018242418FC007C0804040800485454A6
:10026000542000043F444020003C4040207C001CBF
:100270002040201C003C4030403C004428102844D2
:10028000001CA0A0A07C004464544C44141414141A
:10029000141411241FBECFE5D2E0DEBFCDBF10E0A5
:1002A000A0E6B0E0EAE7F9E002C005900D92AC3CB0
:1002B000B107D9F720E0ACECB0E001C01D92AC3D35
:1002C000B207E1F736D157C39BCEC298C098C29A05
:1002D000C09A089530E020E090E0AC01022E01C009
:1002E000440F0A94EAF747FF0CC0C09AC29AC2981A
:1002F0002F5F3F4F2830310581F7C09AC29AC298CC
:100300000895C098F3CFC29AC09AC098C298089531
:10031000FADF88E7DFDF80E4DDCFF5DF88E7DADFCB
:1003200080E0D8CFCF93DF93C82FD62FF6DF80EBB6
:100330008D0FD0DF8C2F82958F708061CBDF8C2F5B
:100340008E708160C7DFDF91CF91BFCF0F931F9376
:10035000CF93DF93C82FDCDFC0528C2F90E066E094
:1003600070E0ECD2D0E0C0E08C0106591F4FF801DC
:10037000EC0FFD1F8491AEDF2196C630D105B9F791
:10038000DF91CF911F910F91A0CFCF93C82FC5DFE1
:100390008C2FA0DFCF9199CF8F929F92AF92BF9277
:1003A000CF92DF92EF92FF920F931F93CF93DF9341
:1003B000D62EC72EB82ED0E0062F10E034E8E32E5C
:1003C00030E0F32EC80166E070E0B8D2FC01ED0F1A
:1003D000F11DEE0FFF1FEC57FF4FC181CB0DA08029
:1003E000AC0C6C2F8A2D9EDF93DF24E6822E20E05A
:1003F000922EF40181914F016DDFF4E78F16F0E04A
:100400009F06B9F762DF61E06C0F8A2D8BDF80DF1A
:1004100084E7882E80E0982EF40181914F015ADF05
:10042000E814F904C9F751DFDF5FDD1658F6DF91F4
:10043000CF911F910F91FF90EF90DF90CF90BF90E1
:10044000AF909F908F9008950F931F93CF93DF935A
:10045000C091D1000C2F10E00B5F1F4FC017110689
:1004600009F0C4F46C2F8091D0005CDF51DFD1E340
:100470008FEF30DFD150E1F728DF6C2F8091CD0076
:1004800051DF46DFD1E38FEF25DFD150E1F71DDFEC
:10049000CF5FE4CFDF91CF911F910F9108951F920D
:1004A0000F920FB60F9211242F933F938F939F9328
:1004B000AF93BF938091D8009091D900A091DA00BA
:1004C000B091DB003091D70020E3230F2D3758F592
:1004D0004096A11DB11D2093D7008093D800909322
:1004E000D900A093DA00B093DB008091D300909103
:1004F000D400A091D500B091D6000196A11DB11DE8
:100500008093D3009093D400A093D500B093D600ED
:10051000BF91AF919F918F913F912F910F900FBEFF
:100520000F901F90189523EB230F4196A11DB11D2D
:10053000D2CF78948AB582608ABD8AB581608ABD3F
:1005400083B7826083BF83B7816083BF89B78260CE
:1005500089BF80B7826080BF3298319A309A379ACB
:100560008CB580648CBDB89ABA9ACEE1D0E00AE32B
:1005700010E0FE01849109DF21960C171D07C9F7D1
:10058000C0EB8C2F02DF80E000DF80E1FEDEC0DE0A
:10059000D0E080E09FDEDF5FD038D9F796DECF5F16
:1005A000C83B79F717B8369A3699FECF84B165B152
:1005B000762F682F072E000C880B990B611571059B
:1005C0008105910509F05AD1C7E5D0E0FE012491DB
:1005D0000DE410E0F80184918823C9F090E0880FC1
:1005E000991FFC01E05CFF4FA591B491FC01E65C12
:1005F000FF4F459154913FB7F8949C91822F80957D
:1006000098239C93FA019081892380833FBF81E0E6
:100610008093CC008093CF008093CE008093D10054
:100620008AE08093D00085E48093CD000DDF91E6D1
:10063000E92E90E0F92E26E0822E912CA12CB12CEF
:100640003AE0732E40E0C42E40E0D42E662463943A
:10065000F7018491FE019491F8012491211152C077
:100660006092D200F1DEBCD0A501940129D1609343
:10067000CF00B6D0A501940123D16093CC00609146
:10068000CF007091D0008091D10086DE6091CC00C7
:100690007091CD008091CE007FDED6DE8091D200B9
:1006A000882351F11092D2006091CF007091D00058
:1006B0008091D10071DE6091CC007091CD0080916D
:1006C000CE006ADE5090CF008091CC00580E53943B
:1006D00053944090CD0060E083EF840D23DE852DA0
:1006E000672D3DD1592E805D31DE60E08BEF840DAA
:1006F00019DE80E3850D2ADEC114D10409F4A8CFE8
:100700007FDCA6CF882329F08230E1F078F48130B5
:10071000A9F0E22FF0E0EE0FFF1FEA5BFF4FA5917B
:10072000B4918C91982309F49BCFB8CF833011F00A
:10073000843079F78CB58F7D8CBDEBCF8AB58F7700
:100740008ABDE7CF8AB58F7DFBCF8F929F92AF9204
:10075000BF92CF92DF92EF92FF92CF93DF93EC01A3
:10076000688179818A819B81611571058105910577
:1007700021F464E279ED8BE597E02DE133EF41E080
:1007800050E09ED049015A0127EA31E440E050E0B0
:100790007ED06B017C012CEE34EF4FEF5FEFC50193
:1007A000B40175D0C60ED71EE81EF91EF7FE06C0AE
:1007B00081E0C81AD108E10880E8F80AC882D98225
:1007C000EA82FB82C701B6019F77DF91CF91FF904C
:1007D000EF90DF90CF90BF90AF909F908F90089553
:1007E0008F929F92AF92BF92CF92DF92EF92FF9241
:1007F000609160007091610080916200909163004F
:10080000611571058105910521F464E279ED8BE5AF
:1008100097E02DE133EF41E050E052D049015A0119
:1008200027EA31E440E050E032D06B017C012CEE4D
:1008300034EF4FEF5FEFC501B40129D0C60ED71ECC
:10084000E81EF91EF7FE06C081E0C81AD108E108CB
:1008500080E8F80AC0926000D0926100E0926200E5
:10086000F0926300C701B6019F77FF90EF90DF9091
:10087000CF90BF90AF909F908F900895609360004D
:100880007093610080936200909363000895EE2757
:10089000FF27AA27BB2708C0A20FB31FE41FF51F1D
:1008A000220F331F441F551F96958795779567959F
:1008B00098F37040A9F7009799F7BD01CF0108950B
:1008C000052E97FB16F400940FD057FD05D014D0D9
:1008D00007FC02D046F408C050954095309521950C
:1008E0003F4F4F4F5F4F089590958095709561955C
:1008F0007F4F8F4F9F4F0895A1E21A2EAA1BBB1B5B
:10090000FD010DC0AA1FBB1FEE1FFF1FA217B307DB
:10091000E407F50720F0A21BB30BE40BF50B661FF1
:10092000771F881F991F1A9469F7609570958095B5
:1009300090959B01AC01BD01CF010895002455277E
:1009400004C0080E591F880F991F009729F076954B
:100950006795B8F37105B9F7802D952F0895991B08
:1009600079E004C0991F961708F0961B881F7A95A6
:0A097000C9F780950895F894FFCFB1
:10097A0001000000FFFFFFFFFF3F1F1F1F1F3FFF78
:10098A00FFFFFFFFFFFFFFFFFFFCF8F8F8F8FCFF8F
:10099A00FFFFFFFF1002000000000000000000003F
:1009AA000802180200000000000000000000100207
:1009BA0020040000000000000801180108031803C1
:1009CA0000000000000020001002000420040000C3
:0C09DA00000020000002200200042004A5
:00000001FF
